:020000040800F2
:1000000000280020F50D0008850D00088B0D000864
:10001000910D0008970D00089D0D000800000000DC
:10002000000000000000000000000000A30D000818
:10003000AF0D000800000000BB0D0008C70D000850
:100040003D0E00083D0E00083D0E00083D0E000864
:100050003D0E00083D0E00083D0E00083D0E000854
:100060003D0E00083D0E00083D0E00083D0E000844
:100070003D0E00083D0E00083D0E00083D0E000834
:100080003D0E00083D0E00083D0E00083D0E000824
:100090003D0E00083D0E00083D0E00083D0E000814
:1000A0003D0E00083D0E00083D0E00083D0E000804
:1000B000D50D00083D0E0008000000003D0E0008B0
:1000C0003D0E000800000000000000003D0E00088A
:1000D000000000003D0E00083D0E0008000000007A
:1000E0003D0E00083D0E00083D0E00080000000017
:1000F0000000000000000000000000000000000000
:0C01000000000000000000005FF808F1A3
:10010C0010B5054C237833B9044B13B10448AFF345
:10011C0000800123237010BD44000020000000006B
:10012C009424000808B5034B1BB103490348AFF3F3
:10013C00008008BD00000000480000209424000846
:10014C0080B582B000AF78607B68092B00F28081AB
:10015C0001A252F823F000BF8D010008D501000860
:10016C001D02000865020008AD020008F502000837
:10017C003D03000885030008CD03000815040008A2
:10018C0000220121B54801F056F900220221B348A2
:10019C0001F051F900220421B04801F04CF9002281
:1001AC000821AE4801F047F900221021AB4801F0BC
:1001BC0042F900222021A94801F03DF901224021F9
:1001CC00A64801F038F944E101220121A34801F0CD
:1001DC0032F900220221A14801F02DF9002204215C
:1001EC009E4801F028F9012208219C4801F023F9CE
:1001FC0001221021994801F01EF901222021974873
:10020C0001F019F901224021944801F014F920E180
:10021C0000220121914801F00EF9002202218F48A1
:10022C0001F009F9012204218C4801F004F90022A3
:10023C0008218A4801F0FFF800221021874801F0BC
:10024C00FAF801222021854801F0F5F8002240211E
:10025C00824801F0F0F8FCE0002201217F4801F017
:10026C00EAF8002202217D4801F0E5F80022042181
:10027C007A4801F0E0F800220821784801F0DBF818
:10028C0001221021754801F0D6F801222021734873
:10029C0001F0D1F800224021704801F0CCF8D8E0F0
:1002AC00012201216D4801F0C6F8002202216B48A1
:1002BC0001F0C1F800220421684801F0BCF80122C9
:1002CC000821664801F0B7F801221021634801F0BB
:1002DC00B2F800222021614801F0ADF80022402143
:1002EC005E4801F0A8F8B4E0002201215B4801F05F
:1002FC00A2F801220221594801F09DF800220421A4
:10030C00564801F098F800220821544801F093F85F
:10031C0001221021514801F08EF8002220214F4873
:10032C0001F089F8002240214C4801F084F890E05B
:10033C0000220121494801F07EF8012202214748A0
:10034C0001F079F800220421444801F074F80022ED
:10035C000821424801F06FF8002210213F4801F0BB
:10036C006AF8002220213D4801F065F80022402166
:10037C003A4801F060F86CE000220121374801F0A6
:10038C005AF800220221354801F055F800220421C8
:10039C00324801F050F801220821304801F04BF8A6
:1003AC00012210212D4801F046F8012220212B4872
:1003BC0001F041F801224021284801F03CF848E0C6
:1003CC0000220121254801F036F8002202212348A1
:1003DC0001F031F800220421204801F02CF8002211
:1003EC0008211E4801F027F8002210211B4801F0BB
:1003FC0022F800222021194801F01DF8002240218A
:10040C00164801F018F824E000220121134801F0ED
:10041C0012F800220221114801F00DF800220421EB
:10042C000E4801F008F8002208210C4801F003F8EE
:10043C0001221021094800F0FEFF0022202107486C
:10044C0000F0F9FF00224021044800F0F4FF00E026
:10045C0000BF00BF0837BD4680BD00BF000C014087
:10046C0080B483B000AF7860094A7B6852F82330BF
:10047C00012B06D1064A7B68002142F82310012388
:10048C0000E0002318460C37BD4680BC704700BF07
:10049C006000002080B483B000AF7860044A7B68B1
:1004AC00012142F8231000BF0C37BD4680BC7047B9
:1004BC006000002080B582B000AF00237B608CE030
:1004CC004A4A7B6852F8232049497B6841F823202B
:1004DC00484A7B6852F8232044497B6841F8232022
:1004EC007B68002B0AD14FF48061434800F08CFFED
:1004FC00034619463F4A7B6842F823107B68012B60
:10050C000AD14FF400613C4800F07EFF03461946C7
:10051C00384A7B6842F823107B68022B0AD14FF4CF
:10052C008051354800F070FF03461946314A7B680C
:10053C0042F823102E4A7B6852F823202B497B6803
:10054C0051F823309A4245D1284A7B6852F823202F
:10055C0028497B6851F823309A423BD1274A7B6863
:10056C0052F8232023497B6851F823309A421BD040
:10057C00204A7B6852F8232020497B6841F82320CD
:10058C001C4A7B6852F82330002B03D17868FFF7A4
:10059C0081FF1FE01A4A7B68002142F82310194B97
:1005AC004FF496721A6015E0164B1B68013B154A06
:1005BC001360144B1B68002B0CD1114A7B68012172
:1005CC0042F823100F4B64221A600C4A7B680121FD
:1005DC0042F823107B6801337B607B68022B7FF72A
:1005EC006FAF00BF00BF0837BD4680BD0C000020B8
:1005FC00000000201800002000080140240000200A
:10060C006C0000203000002080B500AFA34B1B68AD
:10061C00052B00F2B78101A252F823F04106000825
:10062C00D306000891090008BD07000891090008CD
:10063C00B90800089A4B00221A60994B1B6818469F
:10064C00FFF77EFD0120FFF70BFF0346002B19D0AF
:10065C00934B1B680133924A1360914B1B68092B17
:10066C0002DD8F4B00221A608D4B1B681846FFF77A
:10067C0067FD8A4B01221A608A4B1B68184600F0F2
:10068C00BFFA81E10220FFF7EBFE0346002B00F0DE
:10069C007B81834B1B68013B814A1360804B1B6839
:1006AC00002B02DA7E4B09221A607D4B1B68184620
:1006BC00FFF746FD794B03221A607A4B1B681846EC
:1006CC0000F09EFA60E10120FFF7CAFE0346002B02
:1006DC0016D0734B1B680133714A1360704B1B6847
:1006EC00092B02DD6E4B00221A606D4B1B681846FD
:1006FC00FFF726FD6B4B1B68184600F081FA32E0C1
:10070C000220FFF7ADFE0346002B19D0644B1B688B
:10071C00013B634A1360624B1B68002B02DA604B8F
:10072C0009221A605E4B1B681846FFF709FD5B4BEC
:10073C0003221A605B4B1B68184600F061FA12E04A
:10074C000020FFF78DFE0346002B0CD0544B0022EB
:10075C001A60534B1B681846FFF7F2FC4F4B0022F4
:10076C001A6000F0A3FA504B1B68012B40F00E816D
:10077C004B4B1B68013B4A4A1360494B1B68002BCF
:10078C000AD1464B00221A60454B1B681846FFF7EE
:10079C00D7FC00F08BFAF9E0414B1B681846FFF7C9
:1007AC00CFFC3E4B05221A60642000F029FAEDE0E4
:1007BC000220FFF755FE0346002B16D0384B1B6862
:1007CC00013B374A1360364B1B68002B02DA344B63
:1007DC0009221A60324B1B681846FFF7B1FC314BEB
:1007EC001B68184600F00CFA32E00120FFF738FEC7
:1007FC000346002B19D02A4B1B680133284A13607F
:10080C00274B1B68092B02DD254B00221A60244B59
:10081C001B681846FFF794FC204B01221A60214BF1
:10082C001B68184600F0ECF912E00020FFF718FEE8
:10083C000346002B0CD01A4B00221A60184B1B6875
:10084C001846FFF77DFC154B00221A6000F02EFABB
:10085C00154B1B68012B40F09B80114B1B68013B17
:10086C000F4A13600E4B1B68002B0AD10B4B002256
:10087C001A600B4B1B681846FFF762FC00F016FA67
:10088C0086E0074B1B681846FFF75AFC034B052202
:10089C001A60642000F0B4F97AE000BF7C000020FC
:1008AC007800002034000020840000203B4B1B68A3
:1008BC00012B0CD13A4B1B68013B394A1360384B66
:1008CC001B681846FFF73CFC642000F099F9344B88
:1008DC001B68002B02D1334B00221A600020FFF75B
:1008EC00BFFD0346002B0DD02D4B00221A602C4B64
:1008FC001B681846FFF724FC2A4B00221A6000F0F4
:10090C00D5F947E00120FFF7ABFD0346002B19D0CA
:10091C00234B1B680133224A1360214B1B68092BA4
:10092C0002DD1F4B00221A601D4B1B681846FFF797
:10093C0007FC1C4B01221A601B4B1B68184600F06D
:10094C005FF927E00220FFF78BFD0346002B21D037
:10095C00134B1B68013B124A1360114B1B68002B95
:10096C0002DA0F4B09221A600D4B1B681846FFF771
:10097C00E7FB0C4B03221A600B4B1B68184600F06C
:10098C003FF907E000BF06E000BF04E000BF02E053
:10099C0000BF00E000BF00BF80BD00BF840000208E
:1009AC00780000207C0000203400002080B500AFCF
:1009BC00064B1B68012B06D12021054800F053FD86
:1009CC00642000F031F900BF80BD00BF8C00002016
:1009DC000008014080B500AF00F02CFA00F016F8CA
:1009EC0000F09CF800F04EF8064801F08DF901205B
:1009FC0000F01AF9044B00221A60FFF7D7FFFFF73B
:100A0C0003FEFAE7900000207C00002080B590B037
:100A1C0000AF07F1180328220021184601F02CFD25
:100A2C003B1D00221A605A609A60DA601A61022338
:100A3C00BB610123BB621023FB6200237B6307F1C4
:100A4C001803184600F028FD0346002B01D000F0D7
:100A5C00D1F80F237B600023BB600023FB600023D5
:100A6C003B6100237B613B1D0021184600F094FF85
:100A7C000346002B01D000F0BDF800BF4037BD4647
:100A8C0080BD000080B586B000AF07F108030022DE
:100A9C001A605A609A60DA603B4600221A605A600B
:100AAC001D4B4FF080421A601B4B41F63F725A604F
:100ABC00194B00229A60184B0922DA60164B00225F
:100ACC001A61154B00229A61134801F0CDF80346C8
:100ADC00002B01D000F08EF84FF48053BB6007F16F
:100AEC00080319460C4801F063FA0346002B01D0A9
:100AFC0000F080F800233B6000237B603B461946E6
:100B0C00054801F02BFC0346002B01D000F072F8D5
:100B1C0000BF1837BD4680BD9000002080B586B060
:100B2C0000AF07F1080300221A605A609A60DA607D
:100B3C00274B9B69264A43F004039361244B9B6922
:100B4C0003F004037B607B68214B9B69204A43F0D4
:100B5C00080393611E4B9B6903F008033B603B68E1
:100B6C00002220211B4800F066FC00227F211A483D
:100B7C0000F061FC2023BB600123FB6000233B6180
:100B8C0002237B6107F108031946124800F0C2FAF0
:100B9C007F23BB600123FB6000233B6102237B614D
:100BAC0007F1080319460C4800F0B4FA4FF4E0536F
:100BBC00BB600023FB6001233B6107F1080319466E
:100BCC00044800F0A7FA00BF1837BD4680BD00BF2F
:100BDC000010024000080140000C014080B582B0BA
:100BEC0000AF786000F034F8FFF764FC00BF083702
:100BFC00BD4680BD80B400AF72B600BFFEE70000FA
:100C0C0080B483B000AF7860054A7B681360054BF5
:100C1C0000221A6000BF0C37BD4680BC704700BF75
:100C2C00800000208400002080B483B000AF786086
:100C3C00054A7B681360054B00221A6000BF0C3715
:100C4C00BD4680BC704700BF880000208C0000208F
:100C5C0080B400AF114B1B68002B0BDD0F4B1B68D6
:100C6C00013B0E4A13600D4B1B68002B02DC0C4B36
:100C7C0001221A600B4B1B68002B0BDD094B1B6808
:100C8C00013B084A1360074B1B68002B02DC064B28
:100C9C0001221A6000BFBD4680BC70478000002056
:100CAC0084000020880000208C00002080B400AF5D
:100CBC00044B00221A60044B00221A6000BFBD4690
:100CCC0080BC7047800000208400002080B485B078
:100CDC0000AF154B9B69144A43F001039361124B0F
:100CEC009B6903F00103BB60BB680F4BDB690E4AC9
:100CFC0043F08053D3610C4BDB6903F080537B6072
:100D0C007B680A4B5B68FB60FB6823F0E063FB606D
:100D1C00FB6843F08063FB60044AFB68536000BFD0
:100D2C001437BD4680BC70470010024000000140E3
:100D3C0080B584B000AF78607B681B68B3F1804FDE
:100D4C0013D10C4BDB690B4A43F00103D361094B04
:100D5C00DB6903F00103FB60FB68002200211C200F
:100D6C0000F0A1F91C2000F0BAF900BF1037BD4605
:100D7C0080BD00BF0010024080B400AFFEE780B41D
:100D8C0000AFFEE780B400AFFEE780B400AFFEE733
:100D9C0080B400AFFEE780B400AF00BFBD4680BC9E
:100DAC00704780B400AF00BFBD4680BC704780B4B4
:100DBC0000AF00BFBD4680BC704780B500AF00F0EF
:100DCC007FF800BF80BD000080B500AF024800F086
:100DDC00E7FF00BF80BD00BF9000002080B400AFD3
:100DEC0000BFBD4680BC70470C480D490D4A00231E
:100DFC0002E0D458C4500433C4188C42F9D30A4AC4
:100E0C000A4C002301E013600432A242FBD3FFF72B
:100E1C00E5FF01F00DFBFFF7DDFD70470000002042
:100E2C0044000020D424000844000020DC000020F2
:100E3C00FEE7000080B500AF084B1B68074A43F083
:100E4C0010031360032000F023F90F2000F008F8C2
:100E5C00FFF73CFF0023184680BD00BF0020024076
:100E6C0080B582B000AF7860124B1A68124B1B78B9
:100E7C0019464FF47A73B3FBF1F3B2FBF3F3184654
:100E8C0000F03BF90346002B01D001230EE07B68F8
:100E9C000F2B0AD8002279684FF0FF3000F003F9CD
:100EAC00064A7B681360002300E0012318460837CC
:100EBC00BD4680BD38000020400000203C000020D2
:100ECC0080B400AF054B1B781A46054B1B681344C6
:100EDC00034A136000BFBD4680BC70474000002031
:100EEC00D800002080B400AF024B1B681846BD46EA
:100EFC0080BC7047D800002080B485B000AF78600B
:100F0C007B6803F00703FB600C4BDB68BB60BA68C3
:100F1C004FF6FF031340BB60FB681A02BB68134318
:100F2C0043F0BF6343F40033BB60044ABB68D36037
:100F3C0000BF1437BD4680BC704700BF00ED00E019
:100F4C0080B400AF044BDB681B0A03F007031846A0
:100F5C00BD4680BC704700BF00ED00E080B483B09C
:100F6C0000AF0346FB7197F90730002B0BDBFB79C5
:100F7C0003F01F02064997F907305B09012000FABC
:100F8C0002F241F8232000BF0C37BD4680BC7047ED
:100F9C0000E100E080B483B000AF03463960FB7120
:100FAC0097F90730002B0ADB3B68DAB20C4997F94A
:100FBC0007301201D2B20B4483F800230AE03B68DD
:100FCC00DAB20849FB7903F00F03043B1201D2B2E9
:100FDC000B441A7600BF0C37BD4680BC704700BF6F
:100FEC0000E100E000ED00E080B489B000AFF860F3
:100FFC00B9607A60FB6803F00703FB61FB69C3F11E
:10100C000703042B28BF0423BB61FB690433062BA5
:10101C0002D9FB69033B00E000237B614FF0FF32F8
:10102C00BB6902FA03F3DA43BB681A407B699A4046
:10103C004FF0FF317B6901FA03F3D9437B680B4016
:10104C00134318462437BD4680BC704780B582B028
:10105C0000AF78607B68013BB3F1807F01D3012343
:10106C000FE00A4A7B68013B53600F214FF0FF30C1
:10107C00FFF790FF054B00229A60044B07221A6081
:10108C00002318460837BD4680BD00BF10E000E0C5
:10109C0080B582B000AF78607868FFF72DFF00BF95
:1010AC000837BD4680BD80B586B000AF0346B96039
:1010BC007A60FB7300237B61FFF742FF78617A68EB
:1010CC00B9687869FFF790FF024697F90F3011461F
:1010DC001846FFF75FFF00BF1837BD4680BD80B5CF
:1010EC0082B000AF0346FB7197F907301846FFF743
:1010FC0035FF00BF0837BD4680BD80B582B000AF5C
:10110C0078607868FFF7A2FF034618460837BD469B
:10111C0080BD000080B48BB000AF786039600023D4
:10112C007B6200233B6248E101227B6A02FA03F3F3
:10113C00FB613B681B68FA691340BB61BA69FB69C8
:10114C009A4240F037813B685B68A34A93425ED079
:10115C00A14A934275D8A14A934258D09F4A9342D0
:10116C006FD89F4A934252D09D4A934269D89D4A68
:10117C0093424CD09B4A934263D89B4A934246D0AD
:10118C00994A93425DD8122B2AD8122B59D801A216
:10119C0052F823F01B120008F51100080712000882
:1011AC00491200084F1200084F1200084F12000895
:1011BC004F1200084F1200084F1200084F1200087F
:1011CC004F1200084F1200084F1200084F1200086F
:1011DC004F1200084F120008FD11000811120008F0
:1011EC00824A934213D02CE03B68DB683B6229E0D7
:1011FC003B68DB6804333B6224E03B68DB68083304
:10120C003B621FE03B68DB680C333B621AE03B68D7
:10121C009B68002B02D104233B6213E03B689B6864
:10122C00012B05D108233B627B68FA691A6109E03E
:10123C0008233B627B68FA695A6103E000233B6236
:10124C0000E000BFBB69FF2B01D87B6801E07B6825
:10125C0004337B61BB69FF2B02D87B6A9B0002E0E5
:10126C007B6A083B9B003B617B691A680F213B69D9
:10127C0001FA03F3DB431A40396A3B6901FA03F3C1
:10128C001A437B691A603B685B6803F08053002B40
:10129C0000F09080564B9B69554A43F001039361D3
:1012AC00534B9B6903F00103BB60BB68514A7B6ADB
:1012BC009B08023352F82330FB607B6A03F0030374
:1012CC009B000F2202FA03F3DB43FA681340FB6026
:1012DC007B68494A93420DD07B68484A934207D0B9
:1012EC007B68474A934201D1022304E0032302E0C6
:1012FC00012300E000237A6A02F00302920093407B
:10130C00FA681343FB603B497B6A9B080233FA681B
:10131C0041F823203B685B6803F48033002B06D034
:10132C00384B1A683749BB6913430B6006E0354BE1
:10133C001A68BB69DB43334913400B603B685B683D
:10134C0003F40033002B06D02E4B5A682D49BB6991
:10135C0013434B6006E02B4B5A68BB69DB432949AE
:10136C0013404B603B685B6803F48013002B06D082
:10137C00244B9A682349BB6913438B6006E0214BCD
:10138C009A68BB69DB431F4913408B603B685B6801
:10139C0003F40013002B06D01A4BDA681949BB6909
:1013AC001343CB6006E0174BDA68BB69DB43154986
:1013BC001340CB607B6A01337B623B681A687B6AA3
:1013CC0022FA03F3002B7FF4AFAE00BF00BF2C3723
:1013DC00BD4680BC704700BF0000321000003110C9
:1013EC00000022100000211000001210000011104B
:1013FC00001002400000014000080140000C0140B8
:10140C00001001400004014080B485B000AF78604A
:10141C000B467B807B689A687B881340002B02D03C
:10142C000123FB7301E00023FB73FB7B184614378D
:10143C00BD4680BC704780B483B000AF78600B466B
:10144C007B8013467B707B78002B03D07A887B687B
:10145C001A6103E07B881A047B681A6100BF0C37A1
:10146C00BD4680BC704780B485B000AF78600B4639
:10147C007B807B68DB68FB607A88FB6813401A040E
:10148C00FB68D9437B880B401A437B681A6100BF09
:10149C001437BD4680BC704780B586B000AF78600D
:1014AC007B68002B01D101236CE27B681B6803F085
:1014BC000103002B00F08780924B5B6803F00C0358
:1014CC00042B0CD08F4B5B6803F00C03082B12D150
:1014DC008C4B5B6803F48033B3F5803F0BD1894BA5
:1014EC001B6803F40033002B6CD07B685B68002B0B
:1014FC0068D1012346E27B685B68B3F5803F06D177
:10150C00804B1B687F4A43F4803313602EE07B686A
:10151C005B68002B0CD17B4B1B687A4A23F480331D
:10152C001360784B1B68774A23F4802313601DE00B
:10153C007B685B68B3F5A02F0CD1724B1B68714AAA
:10154C0043F4802313606F4B1B686E4A43F4803363
:10155C0013600BE06B4B1B686A4A23F480331360F7
:10156C00684B1B68674A23F4802313607B685B68B5
:10157C00002B13D0FFF7B6FC386108E0FFF7B2FC84
:10158C0002463B69D31A642B01D90323FAE15D4B64
:10159C001B6803F40033002BF0D014E0FFF7A2FC1F
:1015AC00386108E0FFF79EFC02463B69D31A642BB6
:1015BC0001D90323E6E1534B1B6803F40033002BE2
:1015CC00F0D100E000BF7B681B6803F00203002B26
:1015DC0063D04C4B5B6803F00C03002B0BD0494BD6
:1015EC005B6803F00C03082B1CD1464B5B6803F4BF
:1015FC008033002B16D1434B1B6803F00203002BE6
:10160C0005D07B681B69012B01D00123BAE13D4B4E
:10161C001B6823F0F8027B685B69DB0039491343D4
:10162C000B603AE07B681B69002B20D0364B012203
:10163C001A60FFF757FC386108E0FFF753FC0246CD
:10164C003B69D31A022B01D903239BE12D4B1B6859
:10165C0003F00203002BF0D02A4B1B6823F0F80296
:10166C007B685B69DB00274913430B6015E0264B55
:10167C0000221A60FFF736FC386108E0FFF732FCF5
:10168C0002463B69D31A022B01D903237AE11D4B85
:10169C001B6803F00203002BF0D17B681B6803F07E
:1016AC000803002B3AD07B689B69002B19D0174B91
:1016BC0001221A60FFF716FC386108E0FFF712FCF4
:1016CC0002463B69D31A022B01D903235AE10D4B75
:1016DC005B6A03F00203002BF0D0012000F0A6FAA5
:1016EC001CE00A4B00221A60FFF7FCFB38610FE08C
:1016FC00FFF7F8FB02463B69D31A022B08D90323E8
:10170C0040E100BF0010024000004242800442420F
:10171C009E4B5B6A03F00203002BE9D17B681B68CC
:10172C0003F00403002B00F0A6800023FB75974BFD
:10173C00DB6903F08053002B0DD1944BDB69934A8A
:10174C0043F08053D361914BDB6903F08053BB6052
:10175C00BB680123FB758E4B1B6803F48073002B55
:10176C0018D18B4B1B688A4A43F480731360FFF7C4
:10177C00B9FB386108E0FFF7B5FB02463B69D31AA9
:10178C00642B01D90323FDE0814B1B6803F48073A8
:10179C00002BF0D07B68DB68012B06D17B4B1B6ADE
:1017AC007A4A43F0010313622DE07B68DB68002B5F
:1017BC000CD1764B1B6A754A23F001031362734BF1
:1017CC001B6A724A23F0040313621CE07B68DB681B
:1017DC00052B0CD16D4B1B6A6C4A43F0040313624E
:1017EC006A4B1B6A694A43F0010313620BE0674BB7
:1017FC001B6A664A23F001031362644B1B6A634A3B
:10180C0023F0040313627B68DB68002B15D0FFF711
:10181C0069FB38610AE0FFF765FB02463B69D31AA6
:10182C0041F28832934201D90323ABE0574B1B6A38
:10183C0003F00203002BEED014E0FFF753FB3861EA
:10184C000AE0FFF74FFB02463B69D31A41F288329C
:10185C00934201D9032395E04C4B1B6A03F002031E
:10186C00002BEED1FB7D012B05D1484BDB69474AA0
:10187C0023F08053D3617B68DB69002B00F08180FF
:10188C00424B5B6803F00C03082B61D07B68DB696F
:10189C00022B46D13F4B00221A60FFF723FB386125
:1018AC0008E0FFF71FFB02463B69D31A022B01D954
:1018BC00032367E0354B1B6803F00073002BF0D15A
:1018CC007B681B6AB3F5803F08D1304B5B6823F40F
:1018DC0000327B689B682D4913434B602B4B5B6834
:1018EC0023F474127B68196A7B685B6A0B43274983
:1018FC0013434B60274B01221A60FFF7F3FA386150
:10190C0008E0FFF7EFFA02463B69D31A022B01D924
:10191C00032337E01D4B1B6803F00073002BF0D042
:10192C002FE01C4B00221A60FFF7DCFA386108E04C
:10193C00FFF7D8FA02463B69D31A022B01D90323CD
:10194C0020E0124B1B6803F00073002BF0D118E061
:10195C007B68DB69012B01D1012313E00B4B5B6826
:10196C00FB60FB6803F480327B681B6A9A4206D1E9
:10197C00FB6803F470127B685B6A9A4201D0012306
:10198C0000E0002318461837BD4680BD0010024009
:10199C00007000406000424280B584B000AF7860B7
:1019AC0039607B68002B01D10123D0E06A4B1B68A6
:1019BC0003F007033A689A4210D9674B1B6823F06F
:1019CC00070265493B6813430B60634B1B6803F0CC
:1019DC0007033A689A4201D00123B8E07B681B6880
:1019EC0003F00203002B20D07B681B6803F0040378
:1019FC00002B05D0594B5B68584A43F4E0635360A5
:101A0C007B681B6803F00803002B05D0534B5B6805
:101A1C00524A43F460535360504B5B6823F0F0021E
:101A2C007B689B684D4913434B607B681B6803F0D4
:101A3C000103002B40D07B685B68012B07D1474B1F
:101A4C001B6803F40033002B15D101237FE07B6866
:101A5C005B68022B07D1414B1B6803F00073002B12
:101A6C0009D1012373E03D4B1B6803F00203002BEB
:101A7C0001D101236BE0394B5B6823F003027B68D7
:101A8C005B68364913434B60FFF72CFAF8600AE0A9
:101A9C00FFF728FA0246FB68D31A41F288329342C8
:101AAC0001D9032353E02D4B5B6803F00C027B68D8
:101ABC005B689B009A42EBD1274B1B6803F0070332
:101ACC003A689A4210D2244B1B6823F00702224931
:101ADC003B6813430B60204B1B6803F007033A6809
:101AEC009A4201D0012332E07B681B6803F00403A7
:101AFC00002B08D0194B5B6823F4E0627B68DB6831
:101B0C00164913434B607B681B6803F00803002BDA
:101B1C0009D0124B5B6823F460527B681B69DB00B5
:101B2C000E4913434B6000F021F802460B4B5B68E7
:101B3C001B0903F00F030A49CB5C22FA03F3094A91
:101B4C001360094B1B681846FFF78AF900231846E7
:101B5C001037BD4680BD00BF00200240001002407F
:101B6C00BC240008380000203C00002090B48AB04F
:101B7C0000AF2A4B3C1D0FCB84E80F0040F2012331
:101B8C003B800023FB610023BB6100237B620023AD
:101B9C007B6100233B62224B5B68FB61FB6903F0BA
:101BAC000C03042B02D0082B03D02DE01D4B3B6201
:101BBC002DE0FB699B0C03F00F0307F12802134483
:101BCC0013F8243C7B61FB6903F48033002B13D0A6
:101BDC00134B5B685B0C03F0010307F12802134401
:101BEC0013F8283CBB617B690E4A02FB03F2BB690C
:101BFC00B2FBF3F37B6204E07B690B4A02FB03F359
:101C0C007B627B6A3B6202E0064B3B6200BF3B6A35
:101C1C0018462837BD4690BC704700BFAC2400085E
:101C2C000010024000127A0000093D0080B485B01B
:101C3C0000AF78600A4B1B680A4AA2FB03235B0ABD
:101C4C007A6802FB03F3FB6000BFFB685A1EFA6064
:101C5C00002BF9D100BF00BF1437BD4680BC7047C4
:101C6C0038000020D34D621080B582B000AF786090
:101C7C007B68002B01D1012341E07B6893F83D3058
:101C8C00DBB2002B06D17B68002283F83C207868FD
:101C9C00FFF74EF87B68022283F83D207B681A68B8
:101CAC007B6804331946104600F06AFA7B680122FF
:101CBC0083F846207B68012283F83E207B68012252
:101CCC0083F83F207B68012283F840207B68012247
:101CDC0083F841207B68012283F842207B68012233
:101CEC0083F843207B68012283F844207B6801221F
:101CFC0083F845207B68012283F83D200023184699
:101D0C000837BD4680BD000080B485B000AF786058
:101D1C007B6893F83D30DBB2012B01D0012335E019
:101D2C007B68022283F83D207B681B68DA687B683D
:101D3C001B6842F00102DA607B681B68164A93420A
:101D4C0009D07B681B68B3F1804F04D07B681B689B
:101D5C00124A934211D17B681B689B6803F00703FE
:101D6C00FB60FB68062B10D07B681B681A687B68CD
:101D7C001B6842F001021A6007E07B681B681A6856
:101D8C007B681B6842F001021A6000231846143766
:101D9C00BD4680BC704700BF002C014000040040D1
:101DAC0080B582B000AF78607B681B681B6903F05C
:101DBC000203022B22D17B681B68DB6803F0020351
:101DCC00022B1BD17B681B686FF002021A617B68C7
:101DDC0001221A777B681B689B6903F00303002BB5
:101DEC0003D0786800F0B1F905E0786800F0A4F948
:101DFC00786800F0B3F97B6800221A777B681B685F
:101E0C001B6903F00403042B22D17B681B68DB687D
:101E1C0003F00403042B1BD17B681B686FF00402D6
:101E2C001A617B6802221A777B681B689B6903F432
:101E3C004073002B03D0786800F087F905E07868D0
:101E4C0000F07AF9786800F089F97B6800221A773B
:101E5C007B681B681B6903F00803082B22D17B6885
:101E6C001B68DB6803F00803082B1BD17B681B681D
:101E7C006FF008021A617B6804221A777B681B6872
:101E8C00DB6903F00303002B03D0786800F05DF9E5
:101E9C0005E0786800F050F9786800F05FF97B682D
:101EAC0000221A777B681B681B6903F01003102B48
:101EBC0022D17B681B68DB6803F01003102B1BD14D
:101ECC007B681B686FF010021A617B6808221A7716
:101EDC007B681B68DB6903F44073002B03D07868C4
:101EEC0000F033F905E0786800F026F9786800F026
:101EFC0035F97B6800221A777B681B681B6903F035
:101F0C000103012B0ED17B681B68DB6803F0010316
:101F1C00012B07D17B681B686FF001021A6178688E
:101F2C00FEF75CFE7B681B681B6903F08003802B4B
:101F3C000ED17B681B68DB6803F08003802B07D114
:101F4C007B681B686FF080021A61786800F067FA92
:101F5C007B681B681B6903F04003402B0ED17B6828
:101F6C001B68DB6803F04003402B07D17B681B68C0
:101F7C006FF040021A61786800F0F9F87B681B6812
:101F8C001B6903F02003202B0ED17B681B68DB68D8
:101F9C0003F02003202B07D17B681B686FF0200215
:101FAC001A61786800F032FA00BF0837BD4680BD70
:101FBC0080B584B000AF786039607B6893F83C30B2
:101FCC00012B01D10223B3E07B68012283F83C2072
:101FDC007B68022283F83D207B681B689B68FB6052
:101FEC00FB6823F07703FB60FB6823F47F43FB6003
:101FFC007B681B68FA689A603B681B68B3F5005FE6
:10200C003ED0B3F5005F00F28780B3F5805F00F03F
:10201C008580B3F5805F7FD8702B1AD0702B7BD85E
:10202C00602B50D0602B77D8502B3CD0502B73D8D2
:10203C00402B58D0402B6FD8302B64D0302B6BD822
:10204C00202B60D0202B67D8002B5CD0102B5AD0C3
:10205C0062E07B6818683B6899683B685A683B6823
:10206C00DB6800F05CF97B681B689B68FB60FB68B5
:10207C0043F07703FB607B681B68FA689A604EE05C
:10208C007B6818683B6899683B685A683B68DB68F2
:10209C0000F045F97B681B689A687B681B6842F402
:1020AC0080429A603BE07B6818683B6859683B68E3
:1020BC00DB681A4600F0BCF87B681B685021184698
:1020CC0000F013F92BE07B6818683B6859683B6893
:1020DC00DB681A4600F0DAF87B681B68602118464A
:1020EC0000F003F91BE07B6818683B6859683B6893
:1020FC00DB681A4600F09CF87B681B684021184688
:10210C0000F0F3F80BE07B681A683B681B68194613
:10211C00104600F0EAF802E000BF00E000BF7B6868
:10212C00012283F83D207B68002283F83C200023A9
:10213C0018461037BD4680BD80B483B000AF7860C0
:10214C0000BF0C37BD4680BC704780B483B000AF75
:10215C00786000BF0C37BD4680BC704780B483B03C
:10216C0000AF786000BF0C37BD4680BC704780B4B0
:10217C0083B000AF786000BF0C37BD4680BC7047A1
:10218C0080B485B000AF786039607B681B68FB60F9
:10219C007B68254A934207D07B68B3F1804F03D00C
:1021AC007B68224A934208D1FB6823F07003FB60E2
:1021BC003B685B68FA681343FB607B681A4A93427E
:1021CC0007D07B68B3F1804F03D07B68174A9342EA
:1021DC0008D1FB6823F44073FB603B68DB68FA684A
:1021EC001343FB60FB6823F080023B685B6913437D
:1021FC00FB607B68FA681A603B689A687B68DA62F5
:10220C003B681A687B689A627B68074A934203D1E1
:10221C003B681A697B681A637B6801225A6100BFAC
:10222C001437BD4680BC7047002C014000040040B0
:10223C0080B487B000AFF860B9607A60FB681B6A45
:10224C007B61FB681B6A23F00102FB681A62FB6866
:10225C009B693B613B6923F0F0033B617B681B018D
:10226C003A6913433B617B6923F00A037B617A690A
:10227C00BB6813437B61FB683A699A61FB687A69B6
:10228C001A6200BF1C37BD4680BC704780B487B053
:10229C0000AFF860B9607A60FB681B6A23F010022B
:1022AC00FB681A62FB689B697B61FB681B6A3B617C
:1022BC007B6923F470437B617B681B037A6913434E
:1022CC007B613B6923F0A0033B61BB681B013A694E
:1022DC0013433B61FB687A699A61FB683A691A623D
:1022EC0000BF1C37BD4680BC704780B485B000AFC2
:1022FC00786039607B689B68FB60FB6823F0700337
:10230C00FB603A68FB68134343F00703FB607B6890
:10231C00FA689A6000BF1437BD4680BC704780B421
:10232C0087B000AFF860B9607A603B60FB689B686F
:10233C007B617B6923F47F437B613B681A027B687A
:10234C001A43BB6813437A6913437B61FB687A6950
:10235C009A6000BF1C37BD4680BC704780B485B006
:10236C0000AF786039607B6893F83C30012B01D169
:10237C00022341E07B68012283F83C207B68022227
:10238C0083F83D207B681B685B68FB607B681B687F
:10239C009B68BB60FB6823F07003FB603B681B68A9
:1023AC00FA681343FB607B681B68FA685A607B68A9
:1023BC001B68144A934209D07B681B68B3F1804FA9
:1023CC0004D07B681B68104A93420CD1BB6823F085
:1023DC008003BB603B685B68BA681343BB607B6877
:1023EC001B68BA689A607B68012283F83D207B6881
:1023FC00002283F83C20002318461437BD4680BCCD
:10240C00704700BF002C01400004004080B483B032
:10241C0000AF786000BF0C37BD4680BC704780B4FD
:10242C0083B000AF786000BF0C37BD4680BC7047EE
:10243C0070B500260C4D0D4C641BA410A64209D19E
:10244C0000F022F800260A4D0A4C641BA410A64288
:10245C0005D170BD55F8043B98470136EEE755F8A9
:10246C00043B98470136F2E7CC240008CC24000842
:10247C00CC240008D024000803460244934200D127
:10248C00704703F8011BF9E7F8B500BFF8BC08BCAE
:10249C009E467047F8B500BFF8BC08BC9E46704716
:1024AC0002030405060708090A0B0C0D0E0F101089
:1024BC0000000000000000000102030406070809E8
:0424CC0031010008D2
:0424D0000D010008F2
:1024D40001000000000000000000000001000000F6
:1024E40000000000000000000100000000000000E7
:1024F40000000000010000000000000000000000D7
:102504002C010000E80300000024F4001000000087
:0425140001000000C2
:0400000508000DF5ED
:00000001FF
